:020000040800F2
:10000000383001209D010008A107000859070008A9
:100010009D0700080D0200080D17000800000000F1
:10002000000000000000000000000000A10F000818
:100030007906000800000000290C000815110008CE
:10004000B7010008B7010008B7010008B7010008B0
:10005000B7010008B7010008B7010008B7010008A0
:10006000B7010008B7010008B7010008B701000890
:10007000B7010008B7010008B7010008B701000880
:10008000B7010008B7010008B7010008B701000870
:10009000B7010008B7010008B7010008B701000860
:1000A000B7010008B7010008B7010008B701000850
:1000B000B7010008B7010008B7010008B701000840
:1000C000B7010008B7010008B7010008B701000830
:1000D000B7010008B7010008B7010008B701000820
:1000E000B7010008B7010008B7010008B701000810
:1000F000B7010008B7010008B7010008B701000800
:10010000B7010008B7010008B7010008B7010008EF
:10011000B7010008B7010008B7010008B7010008DF
:10012000B7010008B7010008B7010008B7010008CF
:10013000B7010008B7010008B7010008B7010008BF
:10014000B7010008B7010008B7010008B7010008AF
:10015000B7010008B7010008B7010008B70100089F
:10016000B7010008B7010008B7010008B70100088F
:10017000B7010008B7010008B7010008B70100087F
:10018000B7010008B7010008DFF80CD000F018F83C
:1001900000480047611800083830012006488047B1
:1001A00006480047FEE7FEE7FEE7FEE7FEE7FEE75C
:1001B000FEE7FEE7FEE7FEE7891100088901000877
:1001C000064C074D06E0E06840F0010394E80700A4
:1001D00098471034AC42F6D3FFF7DAFFC81B00088B
:1001E000E81B000810B54FF4806000F017FB00F02A
:1001F000CBFF00F0B3FA00F091FF4FF4E13001F0D3
:1002000087FA322000F09EFB012010BD00BFFEE700
:1002100000B595B00121084600F018FD01218805C0
:1002200000F004FD0121172000F000FD002208214C
:10023000684800F06AFA4FF48070139002208DF83D
:1002400051008DF8500000208DF8520001208DF8EB
:10025000530013A95F4800F010FA4FF0A0614FF46B
:10026000C00000F08DFD8020139001208DF850001B
:1002700002208DF8510000208DF8520001208DF8E9
:10028000530013A9534800F0F8F98021514800F0B9
:100290005FFA0D2204214F4800F037FA0D220621A3
:1002A0004C4800F032FA0D2206214B4800F02DFA9E
:1002B0000D220721484800F028FA0D220521474861
:1002C00000F023FA0D220621444800F01EFA0D2208
:1002D0000621434800F019FA0D220721404800F09A
:1002E00014FA0D2200213D4800F00FFA0D220121E1
:1002F0003A4800F00AFA0D220421384800F005FAC5
:10030000C020139002208DF8500003208DF851007A
:1003100000208DF8520001208DF8530013A93048B9
:1003200000F0ABF97320139013A92C4800F0A5F945
:10033000C020139013A9284800F09FF95020139073
:1003400013A9244800F099F90220ADF83C000020E0
:10035000ADF83E00ADF840008020ADF842004020EE
:10036000ADF844000020ADF84600ADF848000FA8F5
:1003700000F070F81B4800F099F800BF194800F031
:1003800041F90028FAD14FF0007000901648019012
:1003900016480290002003904FF4964004900020ED
:1003A00005904FF4806006908000079080000890D0
:1003B0008011099040020A9004200B9003200C90B9
:1003C00000200D900E906946064800F029F915B0FE
:1003D00000BD000000000240000402400010024086
:1003E0000008024028640240280005503400002024
:1003F00010B50121044800F04DF8012000F018F874
:10040000012000F003F810BD2864024030B1074914
:10041000096841F00101054A116005E003490968D6
:1004200021F00101014A11607047000000000550F1
:1004300030B10749096841F48041054A116005E07F
:100440000349096821F48041014A116070470000A6
:100450000000055000210E4A126844F201039A433D
:100460000B4B1A601A46116840F6F27291430288EB
:1004700043881A4383881A43C3881A4303891A435B
:1004800043891A4383891A431143014A1160704713
:100490000000055021B1026842F00102026003E051
:1004A000026822F00102026070470000016821F03A
:1004B000010101600021016041608160C160016152
:1004C000212141614A49884204D13D21484A103ADC
:1004D00091608CE046491831884205D14FF474612F
:1004E000434A103A916082E041493031884205D157
:1004F0004FF474113E4A103A916078E03C4948311B
:10050000884205D14FF07461394A103A91606EE02B
:1005100037496031884204D13649354A103AD160B2
:1005200065E033497831884204D13349304A103A82
:10053000D1605CE02E499031884204D12F492C4A89
:10054000103AD16053E02A49A831884205D14FF0D2
:100550003D51274A103AD16049E02949884204D1E7
:100560003D21274A083A116041E025491831884267
:1005700005D14FF47461224A083A116037E02049EE
:100580003031884205D14FF474111D4A083A116088
:100590002DE01B494831884205D14FF07461184A5B
:1005A000083A116023E016496031884204D11149AC
:1005B000134A121F11601AE011497831884204D1A0
:1005C0000D490F4A121F116011E00D499031884208
:1005D00004D10A490A4A121F116008E00849A831EB
:1005E000884204D14FF03D51054A121F11607047F7
:1005F000106002403D000020400F002000003D2020
:1006000010640240014600200A6802F001020AB1AB
:10061000012000E0002070470146486880B2704722
:1006200010B500220268134B1A40CC680B682343B4
:100630004C6923438C692343CC6923430C6A2343CD
:100640004C6A23438C6A23434C6B23438C6B2343B8
:100650001A430260426922F00702D1E90B342343B6
:100660001A4342610B6943604B6883608B68C360C7
:1006700010BD00003F801CF07047F0B50A46002115
:100680000023002400BF3DE0012505FA01F31568B1
:1006900005EA03049C4234D105684F000326BE409E
:1006A000B543056015794E00B540066835430560D1
:1006B0001579012D02D01579022D16D185684F00CC
:1006C0000326BE40B543856055794E00B540866827
:1006D00035438560456801268E40B54345604568D1
:1006E00096798E40B6B235434560C5684F00032603
:1006F000BE40B543C560D5794E00B540C6683543A8
:10070000C560491C1029BFD3F0BDF0B500230024FB
:100710004D07ED0E02FA05F3CE1000F1200555F855
:1007200026504E07F70E0F26BE40B543CF1000F1FE
:10073000200646F82750CE1000F1200555F8265027
:1007400045EA0304CE1000F1200545F82640F0BD2F
:10075000418370470183704700BFFEE71CB501214C
:10076000022000F063FA01208DF8040000208DF8CB
:10077000060003208DF8050000208DF807004FF4D7
:100780000070009069460448FFF777FF4FF400714E
:100790000148FFF7DFFF1CBD0004024000BFFEE779
:1007A0007047000070B5002100230F22C4781CB3ED
:1007B000174C246804F4E064C4F5E064C4F3072132
:1007C000C1F10404E3B20A4144789C40E1B2847868
:1007D000144021430C07210E0E4C05786155047816
:1007E00004F01F050124AC4005786D11AD0005F142
:1007F000E025C5F8004109E0047804F01F05012454
:10080000AC40054D0678761145F8264070BD0000D5
:100810000CED00E000E400E080E100E0024901436B
:10082000024A1160704700000000FA050CED00E07C
:1008300010B5FFF7EDFC00F0B1FA00F056F8052016
:1008400000F0FAFF00F016F800240DE0084A02EB71
:1008500044025178064A12F8140000F04CF808B12E
:10086000012010BD601CC4B28C2CEFDB0020F8E727
:10087000B01A000808B569460B2000F003F89DF88F
:10088000000008BD70B505460C4600F0FBFA42209A
:1008900000F036FB18B100F017FB012070BD0A20F4
:1008A00000F0D4FF284600F02BFB18B100F00CFB41
:1008B0000220F3E700F008FB0A2000F0C7FF00F079
:1008C000E1FA432000F01CFB18B100F0FDFA032010
:1008D000E4E70A2000F0BAFF00F07CFA207001F093
:1008E00035F800F0F1FA0020D8E710B58021122089
:1008F00000F001F810BD70B505460C4600F0C2FAD4
:10090000422000F0FDFA18B100F0DEFA012070BDBF
:100910000A2000F09BFF284600F0F2FA18B100F020
:10092000D3FA0220F3E70A2000F090FF204600F0FF
:10093000E7FA18B100F0C8FA0320E8E700F0C4FABB
:100940000020E4E770B58AB00646002542F2107038
:1009500006FB00F407A800F0F3FD02A800F0A3FDD9
:100960000CB9012004E0A848844200D900E02046E8
:1009700004460121082000F079F90121022000F04D
:1009800085F90121084600F081F90121152000F0C8
:100990004DF90C20009002208DF8040003208DF802
:1009A000050000208DF8060001208DF8070069463B
:1009B0009648FFF762FE022211469448FFF7A5FE13
:1009C000022203219148FFF7A0FE914800684008E9
:1009D000B0FBF4F0401E85B242F210700890ADF802
:1009E0001C500020ADF82400ADF81E0007A989486E
:1009F00000F064FD6020ADF808000020ADF81400A0
:100A00000120ADF80A004FF47A60049002A98148F1
:100A100000F0A6FC08217F4800F0F2FC0120ADF8B0
:100A20000A004FF47A60049002A97A4800F0F2FCC0
:100A30000821784800F02AFD0121764800F0D8FB13
:100A40000121744800F0E0FB4FF4D44000900220F4
:100A50008DF8040003208DF8050000208DF80600B5
:100A600001208DF8070069466B48FFF706FE01225A
:100A700009216948FFF749FE01220B216648FFF76B
:100A800044FE01220D216448FFF73FFE01220E21A2
:100A90006148FFF73AFE5E480068B0FBF4F0401E84
:100AA00085B242F210700890ADF81C500020ADF8ED
:100AB0002400ADF81E008DF8260007A9574800F065
:100AC000FDFC6020ADF808000020ADF80C00ADF88A
:100AD00014000820ADF816004001ADF81800002001
:100AE000ADF81A000120ADF80A004FF47A600490C6
:100AF00002A94A4800F0A4FB4FF47A60049002A9CE
:100B0000464800F0DBFB4FF47A60049002A94348AA
:100B100000F026FC4FF47A60049002A93F4800F0F0
:100B200079FC01213D4800F07BFB01213B4800F0AE
:100B30005FFB0121394800F067FB4FF440700090E3
:100B400002208DF8040003208DF8050000208DF8A8
:100B5000060001208DF8070069463148FFF78DFD3A
:100B6000032208212E48FFF7D0FD032209212C483B
:100B7000FFF7CBFD26480068B0FBF4F0401E85B2BD
:100B800042F210700890ADF81C500020ADF824001F
:100B9000ADF81E008DF8260007A9224800F08EFC53
:100BA0006020ADF808000020ADF80C00ADF814008E
:100BB0000820ADF816004001ADF818000020ADF88F
:100BC0001A004FF47A60049002A9164800F0C8FB9E
:100BD0004FF47A60049002A9124800F01BFC012136
:100BE000104800F01DFB01210E4800F001FB01211F
:100BF0000C4800F009FB0448844202D900200AB0E6
:100C000070BD0120FBE7000000BD010500000240AF
:100C100020000020000C00400010024000000140B5
:100C200000080240000401407047000029B1064A54
:100C300012680243044B1A6004E0034A12688243BC
:100C4000014B1A60704700003038024029B1064A53
:100C500012680243044B1A6004E0034A126882439C
:100C6000014B1A60704700003438024029B1064A2F
:100C700012680243044B1A6004E0034A126882437C
:100C8000014B1A60704700004038024029B1064A03
:100C900012680243044B1A6004E0034A126882435C
:100CA000014B1A607047000044380240F0B5002143
:100CB000002200230224002502262C4F3F6807F063
:100CC0000C0121B1042905D008292BD105E0284FBA
:100CD00007602AE0274F076027E0244F3F1F3F6847
:100CE000C7F38055214F3F1F3F6807F03F060DB106
:100CF000214B0CE01E4FB7FBF6F7DFF870C0ACF1EC
:100D0000040CDCF800C0CCF3881C07FB0CF3174F75
:100D10003F1F3F68C7F301477F1C7C00B3FBF4F71C
:100D2000076002E0124F076000BF00BF0F4F3F682F
:100D300007F0F0010909114F7A5C0768D740476056
:100D40000A4F3F6807F4E051890A0C4F7A5C476804
:100D5000D7408760054F3F6807F46041490B074F54
:100D60007A5C4768D740C760F0BD00000838024091
:100D70000024F40000127A0000F406141000002091
:100D800002460020044B186820F0784042EA010334
:100D90001843014B18607047083802401CB5012108
:100DA0000220FFF743FF4FF44060009001208DF8D0
:100DB000040000208DF8060001208DF807000220B5
:100DC0008DF8050069460248FFF757FC1CBD00007E
:100DD0000004024070B5002400F028F8322000F032
:100DE00035FD08251AE0322000F030FD4FF4806018
:100DF0000D4908806006040E0B480838006800F4AE
:100E0000006008B1601CC4B2322000F01FFD4FF436
:100E100080600549891C0880681EC5B2002DE2DC8F
:100E200000F018F8204670BD180402401CB54FF4BD
:100E30000060009000208DF8040001208DF807006C
:100E400002208DF8050069460148FFF716FC1CBD1D
:100E5000000402401CB54FF40060009001208DF8A2
:100E6000040000208DF8060001208DF80700022004
:100E70008DF8050069460248FFF7FFFB1CBD000026
:100E80000004024010B54FF400600E490880322083
:100E900000F0DCFC4FF480600A490880322000F04A
:100EA000D5FC4FF400600749891C0880322000F00F
:100EB000CDFC4FF480600349891C0880322000F08B
:100EC000C5FC10BD1804024010B54FF400600B497A
:100ED0000880322000F0BAFC4FF480600749891E78
:100EE0000880322000F0B2FC4FF400600349891EF4
:100EF0000880322000F0AAFC10BD00001A04024055
:100F000070B50446002622E004F0800020B14FF4C2
:100F100000602249088004E04FF400601F49891CEA
:100F200008806006040E322000F090FC4FF48060D0
:100F30001A490880322000F089FC4FF4806017497C
:100F4000891C0880322000F081FC701CC6B2082E7B
:100F5000DADB0A2000F07AFCFFF768FF322000F0AD
:100F600075FC4FF480600D4908800A2000F06EFC8B
:100F70000A480838006800F4006008B1012500E064
:100F800000254FF480600549891C0880322000F05C
:100F90005DFCFFF75FFF284670BD000018040240AB
:100FA000704700003CB50346002015E033F81040C0
:100FB0002DF810403DF910408C4201DA0C4607E054
:100FC0003DF91040944201DD144601E03DF9104026
:100FD0002DF81040441CE0B20428E7DB104C2478C4
:100FE0003DF91440A40004F57A640E4D2C640C4CB9
:100FF00064783DF91440A40004F57A64EC63084C6D
:10100000A4783DF91440A40004F57A64AC63044C60
:10101000E4783DF91440A40004F57A646C633CBDA7
:101020000C000020000001400CB500200190009051
:101030003448006840F480303249086000BF3148CD
:10104000006800F4003000900198401C0190009866
:1010500018B90198B0F5A06FF1D12A48006800F4E2
:10106000003010B10120009001E0002000900098B5
:10107000012846D123484030006840F08050214983
:10108000403108602048006840F480401E490860F4
:101090001C48083000681B49083108600846006891
:1010A00040F4004008600846006840F4A050086022
:1010B0001648091F0860081F006840F08070091F6B
:1010C000086000BF0F48006800F000700028F9D0E9
:1010D00040F205600E4908600A480830006820F0B8
:1010E00003000849083108600846006840F0020023
:1010F000086000BF03480830006800F00C000828B2
:10110000F8D10CBD0038024000700040195440076F
:10111000003C024010B500F01DFA10BD30B500BF14
:1011200015480068154AB0FBF2F1B1F1807F01D398
:1011300001201DE021F07F40401E4FF0E022506171
:1011400050170F22002807DA13071D0E0C4B00F072
:101150000F04241F1D5503E013071C0E094B1C54DC
:1011600000BF00204FF0E0229061072010610020B6
:101170000028D5D130BD00002000002040420F00E3
:1011800018ED00E000E400E010B51548006840F4F8
:101190007000134908601348006840F001001149CD
:1011A000086000200F49083108600E4800680E49A9
:1011B00008400C4908600D48091D0860081F0068B8
:1011C00020F48020091F0860002006490C310860C7
:1011D000FFF72AFF4FF0006001498039086010BD19
:1011E00088ED00E000380240FFFFF6FE10300024DA
:1011F00021B1028842F08002028004E002884FF6AA
:101200007F731A400280704721B1028842F00102C8
:10121000028004E002884FF6FE731A400280704795
:1012200031B1B0F8442042F40042A0F8442005E077
:10123000B0F84420C2F30E02A0F84420704700002A
:1012400070B5002400220023058C4FF6FE76354051
:101250000584028C8388048B4FF68F752C40B51E55
:101260002C400D882C43751E2A408D892A434D88B9
:101270002A43104DA84202D00F4DA84213D14FF679
:10128000F7752A40CD892A434FF6FB752A408D8891
:101290002A434FF6FF652B404FF6FF552B400D8A32
:1012A0002B434D8A2B43838004838D6845630284DE
:1012B00070BD0000000001400004014070B5002432
:1012C00000220023058C4FF6EF7635400584028C12
:1012D0008388048B48F6FF752C404FF6FF452C4061
:1012E0000D884FF6FF7606EA05252C434FF6DF758D
:1012F0002A408D8906EA05152A434D8806EA051518
:101300002A43154DA84202D0144DA8421DD14FF6D4
:101310007F752A40CD894FF6FF7606EA05152A43E8
:101320004FF6BF752A408D8806EA05152A434FF609
:10133000FF352B404FF2FF752B400D8A06EA8505DD
:101340002B434D8A06EA85052B43838004838D68F1
:101350008563028470BD000000000140000401406C
:1013600070B5002400220023058C4FF6FF6635403F
:101370000584028C8388848B4FF68F752C404FF642
:10138000FC752C400D882C434FF6FF552A408D8963
:101390004FF6FF7606EA05252A434D8806EA05251D
:1013A0002A43154DA84202D0144DA8421DD14FF238
:1013B000FF752A40CD894FF6FF7606EA05252A43B8
:1013C0004FF6FF352A408D8806EA05252A434EF65A
:1013D000FF752B404DF6FF752B400D8A06EA05156B
:1013E0002B434D8A06EA05152B43838084838D6841
:1013F000C563028470BD000000000140000401408C
:101400000A460021818B4FF6F773194011438183FF
:101410007047000070B5002200230024058C4EF6B2
:10142000FF7635400584038C8488828B48F6FF75EF
:101430002A404FF6FF452A400D884FF6FF7606EA10
:1014400005252A434DF6FF752B408D8906EA0535A3
:101450002B434D8806EA05352B430A4DA84202D09E
:10146000094DA84208D14BF6FF752C400D8A4FF666
:10147000FF7606EA85152C43848082838D68056497
:10148000038470BD00000140000401400A460021B1
:10149000818B4FF2FF7319404FF6FF7303EA02236B
:1014A00019438183704700210180418081808160E0
:1014B0008181C1810182418270470000002202883F
:1014C000184B98420ED0184B98420BD0B0F1804F79
:1014D00008D0164B984205D0154B984202D0154BB8
:1014E000984204D14FF68F731A404B881A43124B1F
:1014F000984207D0114B984204D04FF6FF431A4050
:101500000B891A4302804B68C3620B880385054B25
:10151000984202D0044B984201D18B7A0386012372
:101520008382704700000140000401400004004035
:1015300000080040000C0040001000400014004073
:101540004FF0FF31416000210180018141808172B3
:10155000704700000448006820B103480068401E3E
:1015600001490860704700000800002010B50246DD
:101570000020108A20F470600B884C8823438C88EC
:101580002343CC8823431843108210BD21B18289A4
:1015900042F40052828104E082894DF6FF731A40C2
:1015A0008281704702460020B1F5007F00D100BF64
:1015B00013880B400BB1012000E000207047F0B50C
:1015C0000346002400260025002040F66A17B94291
:1015D00000D100BF1846C1F3421401F01F060127D5
:1015E00007FA06F5012C01D10C3004E0022C01D1E0
:1015F000103000E014301AB107682F43076002E092
:101600000768AF430760F0BD2DE9FF4705460E466A
:101610000024A14600BFA046B08900B100BF2C8ABB
:1016200024F44054F08804432C82AC8941F20C60CD
:101630008443B08831890843718908430443AC81ED
:10164000AC8A24F44074B0890443AC826846FFF746
:101650002DFB2048854202D01F48854202D1DDF88B
:101660000C9001E0DDF80890A88900F4004040B13A
:1016700009EBC90000EB091031684900B0FBF1F734
:1016800007E009EBC90000EB091031688900B0FBE5
:10169000F1F76420B7FBF0F004012009642101FB9D
:1016A0001078A88900F4004040B1322000EBC80057
:1016B000B0FBF1F000F00700044308E0322000EB3B
:1016C00008106421B0FBF1F000F00F0004432C81FE
:1016D000BDE8FF870010014000140140C1F308027B
:1016E0008280704770B505460C460BE0217828468D
:1016F000FFF7F4FF00BF80212846FFF753FF0028C3
:10170000F9D0641C20780028F0D170BD00BFFEE73E
:1017100010B58AB0044601214804FFF7A7FA012159
:101720000820FFF783FA26208DF80C0002208DF8A0
:101730000D0000208DF80E0001208DF80F0003A889
:10174000FFF730F8072205212B48FEF7DEFF0722BE
:1017500006212948FEF7D9FF2020019002208DF8AC
:1017600008008DF8090000208DF80A0001208DF88E
:101770000B0001A92048FEF780FF402001900220C5
:101780008DF808008DF8090001208DF80A0000206E
:101790008DF80B0001A91848FEF76FFF0694002092
:1017A000ADF81C00ADF81E00ADF82000ADF8240027
:1017B0000C20ADF822000020ADF81000ADF81200AA
:1017C0004FF40070ADF814000020ADF8160006A923
:1017D0000A48FFF719FF04A90848FFF7C7FE0122CE
:1017E00040F225510548FFF7EAFE01210348FFF7C3
:1017F000CDFE0AB010BD0000000C024000440040C5
:1018000002E008C8121F08C1002AFAD170477047C9
:10181000002001E001C1121F002AFBD17047000027
:101820004FF47A700349086000BF0248006800283E
:10183000FBD170470800002000B5024601E0FFF729
:10184000EFFF1000A2F10102F9D100BD03490860C9
:1018500000BF024909680029FBD170470800002039
:101860000EB5324903C9CDE9010131A000680090ED
:10187000FEF7B8FC2F4908706420FFF7DDFF4FF436
:10188000FA624FF4C87101A8FFF78CFB69462A4839
:10189000FFF728FF0A212848FFF720FFFEF7C8FFBF
:1018A000D8B100212448FFF719FF15E04FF400716B
:1018B0002248FEF74DFF4FF49670FFF7BDFF4FF43F
:1018C00000711E48FEF746FF4FF49670FFF7B4FF15
:1018D00000211948FFF702FFE8E74FF47A70FFF79D
:1018E000ABFFFEF785FD20E0FF211348FFF7F6FE72
:1018F000134C1448FEF790FEC0F59640124908605C
:101900004FF40060086021460B48FFF7EBFE4FF4F0
:1019100000710A48FEF71CFF4FF49670FFF78CFF2A
:101920004FF400710548FEF715FFDDE7A81A00081F
:1019300001020000040000200044004000040240B6
:1019400034000020286402400000002010B54FF44D
:1019500000600E4908803220FFF778FF4FF4806066
:101960000A4908803220FFF771FF4FF48060074971
:10197000891C08803220FFF769FF4FF4006003499B
:10198000891C08803220FFF761FF10BD1804024057
:101990003A0C40D0121432801716180419021A7A21
:1019A00003050C003E007000710172117300A20269
:1019B00011817A207B1C7C287D3C7E557F68807657
:1019C00081808288838F849685A386AF87C488D7D9
:1019D00089E813E0000010000D0042001428A5055E
:1019E000AB072475256326A59F78A068A6DFA7DF2F
:1019F000A8F0A990AA9413E50E610F431E052102D9
:101A000022012300330B371D3871392A3C68695590
:101A10006B0A741192009300B104B382431444F032
:101A2000454546614751487964046520660594043C
:101A300095086C0A6D556E116F9F6A400140024017
:101A400013E715084F80508051005222535E548096
:101A5000550A564F589E41083F05750576C14C0FF3
:101A6000770A3DC24B01C960413834113B02A48959
:101A70009D4C9E3F78047901C8F0790FC800791019
:101A8000C87E790AC880790BC801790CC80F790D16
:101A9000C8207909C8807902C8C07903C84079058F
:101AA000C830792609023B42C80090012003B004E7
:101AB0003A0C40D0121432801716180419021A7A00
:101AC00003050C003E007000710172117300A20248
:101AD00011817A207B1C7C287D3C7E557F68807636
:101AE00081808288838F849685A386AF87C488D7B8
:101AF00089E813E0000010000D0042001428A5053D
:101B0000AB072475256326A59F78A068A6DFA7DF0D
:101B1000A8F0A990AA9413E50E610F431E052102B7
:101B200022012300330B371D3871392A3C6869556F
:101B30006B0A741192009300B104B382431444F011
:101B4000454546614751487964046520660594041B
:101B500095086C0A6D556E116F9F6A4001400240F6
:101B600013E715084F80508051005222535E548075
:101B7000550A564F589E41083F05750576C14C0FD2
:101B8000770A3DC24B01C960413834113B02A48938
:101B90009D4C9E3F78047901C8F0790FC8007910F8
:101BA000C87E790AC880790BC801790CC80F790DF5
:101BB000C8207909C8807902C8C07903C84079056E
:101BC000C830792609023B42E81B000800000020CB
:101BD00034000000001800081C1C0008340000201D
:101BE0000430010010180008000000000000000090
:101BF00000000000000102030000000001020304D5
:101C00000102030406070809007A030A0000000025
:0C1C1000000000000102030406070809A0
:040000050800018965
:00000001FF
