:020000040800F2
:10000000403001209D010008550800080D08000837
:10001000510800080D020008D51600080000000075
:10002000000000000000000000000000850F000834
:100030002D070008000000000D0C0008DD1000086E
:10004000B7010008B7010008B7010008B7010008B0
:10005000B7010008B7010008B7010008B7010008A0
:10006000B7010008B7010008B7010008B701000890
:10007000B7010008B7010008B7010008B701000880
:10008000B7010008B7010008B7010008B701000870
:10009000B7010008B7010008B7010008B701000860
:1000A000B7010008B7010008B7010008B701000850
:1000B000B7010008B7010008B7010008B701000840
:1000C000B7010008B7010008B7010008B701000830
:1000D000B7010008B7010008B7010008B701000820
:1000E000B7010008B7010008B7010008B701000810
:1000F000B7010008B7010008B7010008B701000800
:10010000B7010008B7010008B7010008B7010008EF
:10011000B7010008B7010008B7010008B7010008DF
:10012000B7010008B7010008B7010008B7010008CF
:10013000B7010008B7010008B7010008B7010008BF
:10014000B7010008B7010008B7010008B7010008AF
:10015000B7010008B7010008B7010008B70100089F
:10016000B7010008B7010008B7010008B70100088F
:10017000B7010008B7010008B7010008B70100087F
:10018000B7010008B7010008DFF80CD000F018F83C
:100190000048004789180008403001200648804781
:1001A00006480047FEE7FEE7FEE7FEE7FEE7FEE75C
:1001B000FEE7FEE7FEE7FEE75111000889010008AF
:1001C000064C074D06E0E06840F0010394E80700A4
:1001D00098471034AC42F6D3FFF7DAFF501D000801
:1001E000701D000810B54FF4806000F071FB00F046
:1001F000AFFF00F00DFB00F075FF4FF4E13001F0B0
:100200006BFA322000F0F6FB012010BD00BFFEE7C4
:1002100000B597B00121084600F00AFD01218805CC
:1002200000F0F6FC0121172000F0F2FC012108206B
:1002300000F0EEFC00220821834800F0C0FA4FF4E1
:100240008070159002208DF859008DF8580000201C
:100250008DF85A0001208DF85B0015A97A4800F04E
:1002600066FA00214FF4800000F07CFD802015909C
:1002700001208DF8580002208DF8590000208DF8DB
:100280005A0001208DF85B0015A96F4800F04FFA65
:1002900080216D4800F0B6FA8020159000208DF87E
:1002A000580003208DF8590000208DF85A000120D5
:1002B0008DF85B0015A9654800F039FA8021634884
:1002C00000F0A2FA0A2001F0CBFA80215F4800F08A
:1002D00099FA0A2001F0C4FA80215C4800F094FAEF
:1002E0000D220421584800F06AFA0D2206215648D2
:1002F00000F065FA0D220621554800F060FA0D2243
:100300000721534800F05BFA0D220521514800F007
:1003100056FA0D2206214F4800F051FA0D2206210F
:100320004D4800F04CFA0D2207214B4800F047FAE7
:100330000D220021474800F042FA0D2201214548D4
:1003400000F03DFA0D220421424800F038FAC020A6
:10035000159002208DF8580003208DF859000020D8
:100360008DF85A0001208DF85B0015A93A4800F07D
:10037000DEF97320159015A9364800F0D8F9C02091
:10038000159015A9324800F0D2F95020159015A902
:100390002D4800F0CCF94FF4F070ADF806000020C5
:1003A000ADF80200A020ADF804000020ADF8000078
:1003B000684600F079F8012000F064F80220ADF8FA
:1003C00044000020ADF846002020ADF84800802011
:1003D000ADF84A000020ADF84C00ADF84E00ADF885
:1003E000500011A800F094F81C4800F0BDF800BFC0
:1003F0001A4800F065F90028FAD14FF00070029019
:100400001748039017480490002005904FF4964039
:100410000690002007904FF48060089080000990BB
:1004200080000A9080110B9040020C9004200D90E7
:1004300003200E9000200F90109002A9074800F0B2
:1004400049F917B000BD000000000240000C024056
:1004500000040240001002400008024028640240EC
:10046000280005504000002010B50121044800F08C
:100470006FF8012000F03AF8012000F025F810BDD7
:100480002864024030B10749096841F00401054A77
:10049000116005E00349096821F00401014A116077
:1004A00070470000000005504188028841EA02417F
:1004B000044A1162C188828841EA0241014A5162BC
:1004C000704700000000055030B10749096841F04D
:1004D0000101054A116005E00349096821F00101A5
:1004E000014A1160704700000000055030B1074913
:1004F000096841F48041054A116005E00349096833
:1005000021F48041014A116070470000000005504D
:1005100000210E4A126844F201039A430B4B1A6001
:100520001A46116840F6F2729143028843881A43D2
:1005300083881A43C3881A4303891A4343891A4399
:1005400083891A431143014A116070470000055026
:1005500021B1026842F00102026003E0026822F069
:100560000102026070470000016821F00101016092
:100570000021016041608160C16001612121416110
:100580004A49884204D13D21484A103A91608CE0A2
:1005900046491831884205D14FF47461434A103AF4
:1005A000916082E041493031884205D14FF47411A5
:1005B0003E4A103A916078E03C494831884205D182
:1005C0004FF07461394A103A91606EE037496031FA
:1005D000884204D13649354A103AD16065E0334942
:1005E0007831884204D13349304A103AD1605CE016
:1005F0002E499031884204D12F492C4A103AD160BB
:1006000053E02A49A831884205D14FF03D51274A8D
:10061000103AD16049E02949884204D13D21274A56
:10062000083A116041E025491831884205D14FF45C
:100630007461224A083A116037E02049303188421B
:1006400005D14FF474111D4A083A11602DE01B4981
:100650004831884205D14FF07461184A083A116058
:1006600023E016496031884204D11149134A121F10
:1006700011601AE011497831884204D10D490F4ABE
:10068000121F116011E00D499031884204D10A49CE
:100690000A4A121F116008E00849A831884204D1B3
:1006A0004FF03D51054A121F116070471060024023
:1006B0003D000020400F002000003D20106402405B
:1006C000014600200A6802F001020AB1012000E0A0
:1006D0000020704710B500220268134B1A40CC6806
:1006E0000B6823434C6923438C692343CC69234320
:1006F0000C6A23434C6A23438C6A23434C6B234389
:100700008C6B23431A430260426922F00702D1E94D
:100710000B3423431A4342610B6943604B68836087
:100720008B68C36010BD00003F801CF07047F0B5BF
:100730000A4600210023002400BF3DE0012505FA00
:1007400001F3156805EA03049C4234D105684F00A3
:100750000326BE40B543056015794E00B5400668D6
:10076000354305601579012D02D01579022D16D17A
:1007700085684F000326BE40B543856055794E001D
:10078000B540866835438560456801268E40B5438F
:100790004560456896798E40B6B235434560C56878
:1007A0004F000326BE40B543C560D5794E00B54025
:1007B000C6683543C560491C1029BFD3F0BDF0B5EC
:1007C000002300244D07ED0E02FA05F3CE1000F1D0
:1007D000200555F826504E07F70E0F26BE40B543AC
:1007E000CF1000F1200646F82750CE1000F120056A
:1007F00055F8265045EA0304CE1000F1200545F8CF
:100800002640F0BD418370470183704700BFFEE77B
:100810001CB50121022000F0FBF901208DF8040035
:1008200000208DF8060003208DF8050000208DF8CB
:1008300007004FF40070009069460448FFF777FF07
:100840004FF400710148FFF7DFFF1CBD00040240B8
:1008500000BFFEE77047000070B5002100230F22A3
:10086000C4781CB3174C246804F4E064C4F5E06455
:10087000C4F30721C1F10404E3B20A4144789C4067
:10088000E1B28478144021430C07210E0E4C057808
:100890006155047804F01F050124AC4005786D1102
:1008A000AD0005F1E025C5F8004109E0047804F049
:1008B0001F050124AC40054D0678761145F8264009
:1008C00070BD00000CED00E000E400E080E100E01D
:1008D00002490143024A1160704700000000FA0516
:1008E0000CED00E070B5FFF793FC00F049FA00F062
:1008F00054F8052000F0B4FF00F014F80546002479
:100900000AE0074A02EB44025178054A12F8140043
:1009100000F049F8601CC4B2A82CF2D3002070BDCE
:10092000B01A000808B569460B2000F003F89DF8DE
:10093000000008BD70B505460C4600F095FA42204F
:1009400000F0D0FA18B100F0B1FA012070BD0A2011
:1009500000F090FF284600F0C5FA18B100F0A6FAA2
:100960000220F3E700F0A2FA0A2000F083FF00F073
:100970007BFA432000F0B6FA18B100F097FA032092
:10098000E4E70A2000F076FF00F016FA207000F08D
:10099000C9FF00F08BFA0020D8E710B580211220A3
:1009A00000F001F810BD70B505460C4600F05CFA89
:1009B000422000F097FA18B100F078FA012070BDDB
:1009C0000A2000F057FF284600F08CFA18B100F01A
:1009D0006DFA0220F3E70A2000F04CFF204600F0F9
:1009E00081FA18B100F062FA0320E8E700F05EFA3D
:1009F0000020E4E770B58AB00646002542F2107088
:100A000006FB00F407A800F07FFD02A800F02FFD10
:100A10000CB9012004E07748844200D900E0204668
:100A200004460121082000F013F90121084600F0D6
:100A30001FF90121112000F0EBF80C20009002209A
:100A40008DF8040003208DF8050000208DF80600C5
:100A500001208DF8070069466748FFF768FE02220B
:100A600011466548FFF7ABFE022203216248FFF7FB
:100A7000A6FE624800684008B0FBF4F0401E85B254
:100A800042F210700890ADF81C500020ADF8240020
:100A9000ADF81E0007A95A4800F0F4FC6020ADF83C
:100AA00008000020ADF814000120ADF80A004FF452
:100AB000FA70049002A9524800F036FC0821504810
:100AC00000F082FC0120ADF80A004FF4FA700490A7
:100AD00002A94B4800F082FC0821494800F0BAFC0A
:100AE0000121474800F068FB0121454800F070FBF8
:100AF0004FF4D440009002208DF8040003208DF8BC
:100B0000050000208DF8060001208DF807006946D9
:100B10003C48FFF70CFE012209213A48FFF74FFE3F
:100B200001220B213748FFF74AFE01220D213548EB
:100B3000FFF745FE01220E213248FFF740FE2F4805
:100B40000068B0FBF4F0401E85B242F210700890CD
:100B5000ADF81C500020ADF82400ADF81E008DF853
:100B6000260007A9284800F08DFC6020ADF8080099
:100B70000020ADF80C00ADF814000820ADF8160008
:100B80004001ADF818000020ADF81A000120ADF8C2
:100B90000A004FF4FA70049002A91B4800F034FBDD
:100BA0004FF4FA70049002A9174800F06BFB4FF461
:100BB000FA70049002A9144800F0B6FB4FF4FA70E2
:100BC000049002A9104800F009FC01210E4800F031
:100BD0000BFB01210C4800F0EFFA01210A4800F05C
:100BE000F7FA0448844202D900200AB070BD0120FF
:100BF000FBE7000000BD0105000002402C000020C2
:100C0000000C00400010024000000140704700004E
:100C100029B1064A12680243044B1A6004E0034AF1
:100C200012688243014B1A6070470000303802405E
:100C300029B1064A12680243044B1A6004E0034AD1
:100C400012688243014B1A6070470000343802403A
:100C500029B1064A12680243044B1A6004E0034AB1
:100C600012688243014B1A6070470000403802400E
:100C700029B1064A12680243044B1A6004E0034A91
:100C800012688243014B1A607047000044380240EA
:100C9000F0B50021002200230224002502262C4F5B
:100CA0003F6807F00C0121B1042905D008292BD198
:100CB00005E0284F07602AE0274F076027E0244F10
:100CC0003F1F3F68C7F38055214F3F1F3F6807F024
:100CD0003F060DB1214B0CE01E4FB7FBF6F7DFF8D6
:100CE00070C0ACF1040CDCF800C0CCF3881C07FB2E
:100CF0000CF3174F3F1F3F68C7F301477F1C7C0071
:100D0000B3FBF4F7076002E0124F076000BF00BFBB
:100D10000F4F3F6807F0F0010909114F7A5C07682F
:100D2000D74047600A4F3F6807F4E051890A0C4FEB
:100D30007A5C4768D7408760054F3F6807F4604199
:100D4000490B074F7A5C4768D740C760F0BD000089
:100D5000083802400024F40000127A0000F406145F
:100D60001C00002002460020044B186820F0EC60B4
:100D700042EA01031843014B1860704708380240EB
:100D80001CB501210220FFF743FF4FF440600090A3
:100D900001208DF8040000208DF8060001208DF858
:100DA000070002208DF8050069460248FFF7BFFCE6
:100DB0001CBD00000004024070B5002400F028F8BB
:100DC000322000F057FD08251AE0322000F052FDD5
:100DD0004FF480600D4908806006040E0B48083807
:100DE000006800F4006008B1601CC4B2322000F05A
:100DF00041FD4FF480600549891C0880681EC5B21A
:100E0000002DE2DC00F018F8204670BD1804024006
:100E10001CB54FF40060009000208DF80400012004
:100E20008DF8070002208DF8050069460148FFF79C
:100E30007EFC1CBD000402401CB54FF40060009015
:100E400001208DF8040000208DF8060001208DF8A7
:100E5000070002208DF8050069460248FFF767FC8D
:100E60001CBD00000004024010B54FF400600E49A4
:100E70000880322000F0FEFC4FF480600A490880B0
:100E8000322000F0F7FC4FF400600749891C08800D
:100E9000322000F0EFFC4FF480600349891C088089
:100EA000322000F0E7FC10BD1804024010B54FF4EA
:100EB00000600B490880322000F0DCFC4FF48060B9
:100EC0000749891E0880322000F0D4FC4FF40060EE
:100ED0000349891E0880322000F0CCFC10BD0000C0
:100EE0001A04024070B50446002622E004F0800097
:100EF00020B14FF400602249088004E04FF4006004
:100F00001F49891C08806006040E322000F0B2FCE4
:100F10004FF480601A490880322000F0ABFC4FF497
:100F200080601749891C0880322000F0A3FC701CE7
:100F3000C6B2082EDADB0A2000F09CFCFFF768FF3F
:100F4000322000F097FC4FF480600D4908800A20A1
:100F500000F090FC0A480838006800F4006008B10E
:100F6000012500E000254FF480600549891C0880B8
:100F7000322000F07FFCFFF75FFF284670BD0000C5
:100F800018040240704700003CB50346002015E0FD
:100F900033F810402DF810403DF910408C4201DA32
:100FA0000C4607E03DF91040944201DD144601E093
:100FB0003DF910402DF81040441CE0B20428E7DB56
:100FC000BDF9064004F5FA74084D2C64BDF90440DF
:100FD00004F5FA74EC63BDF9024004F5FA74AC63ED
:100FE000BDF9004004F5FA746C633CBD000001409B
:100FF0000CB50020019000903448006840F4803027
:101000003249086000BF3148006800F400300090A9
:101010000198401C0190009818B90198B0F5A06F94
:10102000F1D12A48006800F4003010B1012000908E
:1010300001E0002000900098012846D1234840306C
:10104000006840F080502149403108602048006825
:1010500040F480401E4908601C48083000681B4965
:10106000083108600846006840F4004008600846FF
:10107000006840F4A05008601648091F0860081F67
:10108000006840F08070091F086000BF0F480068CA
:1010900000F000700028F9D040F205600E490860A9
:1010A0000A480830006820F0030008490831086049
:1010B0000846006840F00200086000BF034808309E
:1010C000006800F00C000828F8D10CBD0038024080
:1010D0000070004019544007003C024010B500F079
:1010E0001DFA10BD30B500BF15480068154AB0FBA9
:1010F000F2F1B1F1807F01D301201DE021F07F40AA
:10110000401E4FF0E022506150170F22002807DAEE
:1011100013071D0E0C4B00F00F04241F1D5503E098
:1011200013071C0E094B1C5400BF00204FF0E02297
:1011300090610720106100200028D5D130BD00004B
:101140002C00002040420F0018ED00E000E400E019
:1011500010B51548006840F4700013490860134842
:10116000006840F001001149086000200F49083173
:1011700008600E4800680E4908400C4908600D4898
:10118000091D0860081F006820F48020091F0860FE
:10119000002006490C310860FFF72AFF4FF000607D
:1011A00001498039086010BD88ED00E00038024038
:1011B000FFFFF6FE1030002421B1028842F08002C9
:1011C000028004E002884FF67F731A400280704765
:1011D00021B1028842F00102028004E002884FF649
:1011E000FE731A400280704731B1B0F8442042F4D7
:1011F0000042A0F8442005E0B0F84420C2F30E02FB
:10120000A0F844207047000070B50024002200239D
:10121000058C4FF6FE7635400584028C8388048B5E
:101220004FF68F752C40B51E2C400D882C43751E33
:101230002A408D892A434D882A43104DA84202D066
:101240000F4DA84213D14FF6F7752A40CD892A4396
:101250004FF6FB752A408D882A434FF6FF652B40D9
:101260004FF6FF552B400D8A2B434D8A2B4383802D
:1012700004838D684563028470BD00000000014056
:101280000004014070B5002400220023058C4FF6B5
:10129000EF7635400584028C8388048B48F6FF7511
:1012A0002C404FF6FF452C400D884FF6FF7606EA9E
:1012B00005252C434FF6DF752A408D8906EA051572
:1012C0002A434D8806EA05152A43154DA84202D047
:1012D000144DA8421DD14FF67F752A40CD894FF697
:1012E000FF7606EA05152A434FF6BF752A408D881A
:1012F00006EA05152A434FF6FF352B404FF2FF75DE
:101300002B400D8A06EA85052B434D8A06EA8505A2
:101310002B43838004838D688563028470BD000045
:10132000000001400004014070B5002400220023A9
:10133000058C4FF6FF6635400584028C8388848BCC
:101340004FF68F752C404FF6FC752C400D882C43C2
:101350004FF6FF552A408D894FF6FF7606EA0525A0
:101360002A434D8806EA05252A43154DA84202D096
:10137000144DA8421DD14FF2FF752A40CD894FF67A
:10138000FF7606EA05252A434FF6FF352A408D8869
:1013900006EA05252A434EF6FF752B404DF6FF75EC
:1013A0002B400D8A06EA05152B434D8A06EA0515E2
:1013B0002B43838084838D68C563028470BD0000E5
:1013C00000000140000401400A460021818B4FF6D5
:1013D000F7731940114381837047000070B50022F4
:1013E00000230024058C4EF6FF7635400584038CDF
:1013F0008488828B48F6FF752A404FF6FF452A40C5
:101400000D884FF6FF7606EA05252A434DF6FF754F
:101410002B408D8906EA05352B434D8806EA0535B4
:101420002B430A4DA84202D0094DA84208D14BF6E1
:10143000FF752C400D8A4FF6FF7606EA85152C4382
:10144000848082838D680564038470BD0000014040
:10145000000401400A460021818B4FF2FF731940BE
:101460004FF6FF7303EA022319438183704700217B
:1014700001804180818081608181C18101824182BE
:101480007047000000220288184B98420ED0184B7B
:1014900098420BD0B0F1804F08D0164B984205D03F
:1014A000154B984202D0154B984204D14FF68F73DA
:1014B0001A404B881A43124B984207D0114B98425E
:1014C00004D04FF6FF431A400B891A4302804B6841
:1014D000C3620B880385054B984202D0044B9842A7
:1014E00001D18B7A0386012383827047000001407B
:1014F000000401400004004000080040000C0040CF
:1015000000100040001400404FF0FF314160002106
:1015100001800181418081727047000004480068A9
:1015200020B103480068401E014908607047000070
:101530001800002010B502460020108A20F47060C8
:101540000B884C8823438C882343CC88234318433F
:10155000108210BD21B1828942F40052828104E0E0
:1015600082894DF6FF731A4082817047024600203F
:10157000B1F5007F00D100BF13880B400BB10120F3
:1015800000E000207047F0B5034600240026002547
:10159000002040F66A17B94200D100BF1846C1F3D7
:1015A000421401F01F06012707FA06F5012C01D1AC
:1015B0000C3004E0022C01D1103000E014301AB1DC
:1015C00007682F43076002E00768AF430760F0BD7C
:1015D0002DE9FF4705460E460024A14600BFA04660
:1015E000B08900B100BF2C8A24F44054F088044331
:1015F0002C82AC8941F20C608443B0883189084365
:10160000718908430443AC81AC8A24F44074B089E6
:101610000443AC826846FFF73BFB2048854202D07A
:101620001F48854202D1DDF80C9001E0DDF80890FA
:10163000A88900F4004040B109EBC90000EB091093
:1016400031684900B0FBF1F707E009EBC90000EB96
:10165000091031688900B0FBF1F76420B7FBF0F0A6
:1016600004012009642101FB1078A88900F40040DE
:1016700040B1322000EBC800B0FBF1F000F00700F1
:10168000044308E0322000EB08106421B0FBF1F0C5
:1016900000F00F0004432C81BDE8FF8700100140DB
:1016A00000140140C1F308028280704770B50546FE
:1016B0000C460BE021782846FFF7F4FF00BF80219D
:1016C0002846FFF753FF0028F9D0641C2078002833
:1016D000F0D170BD00BFFEE710B58AB0044601210D
:1016E0004804FFF7B5FA01210820FFF791FA2620F8
:1016F0008DF80C0002208DF80D0000208DF80E00F2
:1017000001208DF80F0003A8FFF7A6F80722052196
:101710002B48FFF754F8072206212948FFF74FF816
:101720002020019002208DF808008DF8090000208B
:101730008DF80A0001208DF80B0001A92048FEF762
:10174000F6FF4020019002208DF808008DF8090076
:1017500001208DF80A0000208DF80B0001A918481F
:10176000FEF7E5FF06940020ADF81C00ADF81E0062
:10177000ADF82000ADF824000C20ADF822000020C8
:10178000ADF81000ADF812004FF40070ADF8140081
:101790000020ADF8160006A90A48FFF719FF04A9B2
:1017A0000848FFF7C7FE012240F225510548FFF720
:1017B000EAFE01210348FFF7CDFE0AB010BD00008C
:1017C000000C02400044004002E008C8121F08C19B
:1017D000002AFAD170477047002001E001C1121FB2
:1017E000002AFBD17047000010B50446B4F9001080
:1017F000A1F57A7000EBD071491009B2114A11803D
:10180000B4F90210A1F57A7000EBD071491009B259
:101810005180B4F90410A1F57A7000EBD071491031
:1018200009B29180B4F90610A1F57A7000EBD0717D
:10183000491009B2D1804FF47A7200210148FFF7B4
:10184000A3FB10BD060000204FF47A700349086026
:1018500000BF024800680028FBD170471800002034
:1018600000B5024601E0FFF7EFFF1000A2F1010210
:10187000F9D100BD0349086000BF02490968002989
:10188000FBD1704718000020FEF7ACFC204908701F
:101890006420FFF7E5FF1F48FFF7A6FFFFF722F8D8
:1018A000B8B115E04FF400711B48FEF7ABFF4FF4E1
:1018B0009670FFF7D5FF4FF400711748FEF7A4FFAD
:1018C0004FF49670FFF7CCFF00211448FFF7EAFEB3
:1018D000E8E74FF47A70FFF7C3FFFEF7C5FD16E0A7
:1018E0000F4C21460D48FFF7E1FEFF210B48FFF7A3
:1018F000D9FE4FF400710848FEF784FF4FF496704C
:10190000FFF7AEFF4FF400710348FEF77DFFE7E7F6
:10191000040000200E0000200004024000440040AB
:101920004000002010B54FF400600E4908803220BE
:10193000FFF7A0FF4FF480600A4908803220FFF7CC
:1019400099FF4FF480600749891C08803220FFF717
:1019500091FF4FF400600349891C08803220FFF793
:1019600089FF10BD180402403A0C40D01214328096
:101970001716180419021A7A03050C003E0070BAF3
:10198000713572117300A20211817A207B1C7C28B0
:101990007D3C7E557F68807681808288838F8496A7
:1019A00085A386AF87C488D789E813E000001000BC
:1019B0000D0042001428A505AB072475256326A554
:1019C0009F78A068A6DFA7DFA8F0A990AA9413E5E6
:1019D0000E610F431E05210222012300330B371D28
:1019E0003871392A3C6869556B0A7411920093006A
:1019F000B104B382431444F04545466147514879E8
:101A0000640465206605940495086C0A6D556E1192
:101A10006F9F6A400140024013E715004F805080DD
:101A200051005222535E5480550A564F589E410829
:101A30003F05750576C14C0F770A3DC24B01C96061
:101A4000413834113B02A4899D4C9E3F78047901B2
:101A5000C8F0790FC8007910C87E790AC880790B60
:101A6000C801790CC80F790DC8207909C88079029E
:101A7000C8C07903C8407905C830792609023B42BD
:101A800011806B1A2A002B00920093003B0A121659
:101A900070BA713540908C003A0467C068801E3778
:101AA0001716180419021A7B328003061500B08439
:101AB0003A044010121432801716180419021A7BC7
:101AC00003060C0015083E0070BA71B57211730060
:101AD000A20211817A207B1C7C287D3C7E557F6888
:101AE000807681808288838F849685A386AF87C421
:101AF00088D789E813E0000010000D001428A50520
:101B0000AB072475256326A59F78A068A103A6DFEF
:101B1000A7DFA8F0A990AA9413E50E610F4B160257
:101B20001E27210222912907330B350B371D3871EF
:101B3000392A3C784D404E2069006B4074198D4F16
:101B40008E008F0090009100920096009A80B084E1
:101B5000B10CB20EB382B80A431444F0453446586F
:101B60004728483A59885A885B445C675D495E0E4D
:101B7000640465206605940495086C0A6D554F80D1
:101B8000508051005222535E548009036E116F9FA2
:101B90005500564057406A400140024013E7150087
:101BA000589E41083F00750576E14C0077013DC223
:101BB0004B09C960413834113B02A4899600973023
:101BC000982099309A849B299C039D4C9E3F7804D1
:101BD0007901C8F0790FC8007910C87E790AC880E9
:101BE000790BC801790CC80F790DC8207909C88014
:101BF0007902C8C07903C8407905C8307926090040
:101C00003A0440D0121432801716180419021A7BB5
:101C100003060C003E007000710072117300A202F6
:101C200011027A207B1C7C287D3C7E557F68807663
:101C300081808288838F849685A386AF87C488D766
:101C400089E813E0000010000D001420A505AB0783
:101C50002475256326A59F78A068A103A6DFA7DFCA
:101C6000A8F0A990AA9413E50E610F4B16021E3737
:101C7000210222912907330B350B371D3871392A80
:101C80003C784D404E20690C6B8074198D4F8E004E
:101C90008F0090009100920096009A80B084B10C61
:101CA000B20EB382B80A431444F04534465847286C
:101CB000483A59885A885B445C675D495E0E640403
:101CC00065206605940495086C0A6D556E116F9F2A
:101CD0006A000180028013E715004F805080510098
:101CE0005222535E5480589E41083F00750576E1AC
:101CF0004C0077013DC24B09C96041385640341150
:101D00003B02A48996009730982099309A849B29A9
:101D10009C039D4C9E3F78047901C8F0790FC80060
:101D20007910C87E790AC880790BC801790CC80F70
:101D3000790DC8207909C8807902C8C07903C840E4
:101D40007905C83079260903550056403BC200008A
:101D5000701D00080000002040000000C8170008A7
:101D6000B01D00084000002000300100D817000816
:101D70000000000000000000000000000000DC0582
:101D8000DC05E803DC0500000000000000000000A6
:101D9000010203040102030406070809007A030A8A
:101DA000000000000000000001020304060708090B
:040000050800018965
:00000001FF
