:020000040800F2
:10000000303001209D0100088507000831070008F5
:1000100081070008E5010008990F000800000000B2
:10002000000000000000000000000000090C0008B3
:1000300051060008000000009D080008F90C0008A7
:10004000B7010008B7010008B7010008B7010008B0
:10005000B7010008B7010008B7010008B7010008A0
:10006000B7010008B7010008B7010008B701000890
:10007000B7010008B7010008B7010008B701000880
:10008000B7010008B7010008B7010008B701000870
:10009000B7010008B7010008B7010008B701000860
:1000A000B7010008B7010008B7010008B701000850
:1000B000B7010008B7010008B7010008B701000840
:1000C000B7010008B7010008B7010008B701000830
:1000D000B7010008B7010008B7010008B701000820
:1000E000B7010008B7010008B7010008B701000810
:1000F000B7010008B7010008B7010008B701000800
:10010000B7010008B7010008B7010008B7010008EF
:10011000B7010008B7010008B7010008B7010008DF
:10012000B7010008B7010008B7010008B7010008CF
:10013000B7010008B7010008B7010008B7010008BF
:10014000B7010008B7010008B7010008B7010008AF
:10015000B7010008B7010008B7010008B70100089F
:10016000B7010008B7010008B7010008B70100088F
:10017000B7010008B7010008B7010008B70100087F
:10018000B7010008B7010008DFF80CD000F018F83C
:1001900000480047FD0F0008303001200648804726
:1001A00006480047FEE7FEE7FEE7FEE7FEE7FEE75C
:1001B000FEE7FEE7FEE7FEE76D0D00088901000897
:1001C000064C074D06E0E06840F0010394E80700A4
:1001D00098471034AC42F6D3FFF7DAFF2412000838
:1001E0004412000800BFFEE700B595B001210846A3
:1001F00000F066FB0121880500F052FB0121172069
:1002000000F04EFB00220821684800F06AFA4FF423
:100210008070139002208DF851008DF8500000205E
:100220008DF8520001208DF8530013A95F4800F0AB
:1002300010FA4FF0A0614FF4C00000F0D5FB802011
:10024000139001208DF8500002208DF851000020FD
:100250008DF8520001208DF8530013A9534800F087
:10026000F8F98021514800F05FFA0D2204214F482F
:1002700000F037FA0D2206214C4800F032FA0D2228
:1002800006214B4800F02DFA0D220721484800F0C6
:1002900028FA0D220521474800F023FA0D220621F5
:1002A000444800F01EFA0D220621434800F019FAD6
:1002B0000D220721404800F014FA0D2200213D488C
:1002C00000F00FFA0D2201213A4800F00AFA0D223F
:1002D0000421384800F005FAC020139002208DF860
:1002E000500003208DF8510000208DF852000120AD
:1002F0008DF8530013A9304800F0ABF97320139028
:1003000013A92C4800F0A5F9C020139013A9284880
:1003100000F09FF95020139013A9244800F099F998
:100320000220ADF83C000020ADF83E00ADF84000E2
:100330008020ADF842004020ADF844000020ADF828
:100340004600ADF848000FA800F070F81B4800F018
:1003500099F800BF194800F041F90028FAD14FF090
:1003600000700090164801901648029000200390FB
:100370004FF496400490002005904FF48060069062
:1003800080000790800008908011099040020A9038
:1003900004200B9003200C9000200D900E906946D5
:1003A000064800F029F915B000BD00000000024029
:1003B000000402400010024000080240286402408D
:1003C000280005502C00002010B50121044800F041
:1003D0004DF8012000F018F8012000F003F810BDDE
:1003E0002864024030B10749096841F00101054A1B
:1003F000116005E00349096821F00101014A11601B
:10040000704700000000055030B10749096841F409
:100410008041054A116005E00349096821F48041E3
:10042000014A1160704700000000055000210E4A8B
:10043000126844F201039A430B4B1A601A46116882
:1004400040F6F2729143028843881A4383881A4324
:10045000C3881A4303891A4343891A4383891A4379
:100460001143014A116070470000055021B1026834
:1004700042F00102026003E0026822F00102026021
:1004800070470000016821F0010101600021016056
:1004900041608160C1600161212141614A49884216
:1004A00004D13D21484A103A91608CE04649183108
:1004B000884205D14FF47461434A103A916082E05A
:1004C00041493031884205D14FF474113E4A103A07
:1004D000916078E03C494831884205D14FF0746121
:1004E000394A103A91606EE037496031884204D150
:1004F0003649354A103AD16065E03349783188424F
:1005000004D13349304A103AD1605CE02E49903131
:10051000884204D12F492C4A103AD16053E02A492D
:10052000A831884205D14FF03D51274A103AD16099
:1005300049E02949884204D13D21274A083A1160FF
:1005400041E025491831884205D14FF47461224AAF
:10055000083A116037E020493031884205D14FF424
:1005600074111D4A083A11602DE01B494831884238
:1005700005D14FF07461184A083A116023E016491A
:100580006031884204D11149134A121F11601AE0E8
:1005900011497831884204D10D490F4A121F116068
:1005A00011E00D499031884204D10A490A4A121FCC
:1005B000116008E00849A831884204D14FF03D514C
:1005C000054A121F11607047106002403D00002074
:1005D000400F002000003D20106402400146002032
:1005E0000A6802F001020AB1012000E00020704711
:1005F0000146486880B2704710B500220268134B6C
:100600001A40CC680B6823434C6923438C6923430D
:10061000CC6923430C6A23434C6A23438C6A2343EB
:100620004C6B23438C6B23431A430260426922F0D4
:100630000702D1E90B3423431A4342610B6943603B
:100640004B6883608B68C36010BD00003F801CF066
:100650007047F0B50A4600210023002400BF3DE0AA
:10066000012505FA01F3156805EA03049C4234D11B
:1006700005684F000326BE40B543056015794E005E
:10068000B5400668354305601579012D02D015790E
:10069000022D16D185684F000326BE40B543856004
:1006A00055794E00B540866835438560456801261A
:1006B0008E40B5434560456896798E40B6B2354365
:1006C0004560C5684F000326BE40B543C560D57977
:1006D0004E00B540C6683543C560491C1029BFD3DC
:1006E000F0BDF0B5002300244D07ED0E02FA05F32E
:1006F000CE1000F1200555F826504E07F70E0F26B4
:10070000BE40B543CF1000F1200646F82750CE106A
:1007100000F1200555F8265045EA0304CE1000F1FB
:10072000200545F82640F0BD41837047018370479E
:1007300000BFFEE71CB50121022000F0B1F8012046
:100740008DF8040000208DF8060003208DF80500C8
:1007500000208DF807004FF440400090694607489C
:10076000FFF777FF4FF480410448FFF7DFFF4FF4B6
:1007700000410248FFF7DAFF1CBD00000004024000
:1007800000BFFEE77047000010B5FFF72DFD00F039
:1007900039F900F056F8052000F01CFC00F016F8BE
:1007A00000240DE0084A02EB44025178064A12F890
:1007B000140000F04CF808B1012010BD601CC4B258
:1007C0008C2CEFDB0020F8E70C11000808B5694617
:1007D0000B2000F003F89DF8000008BD70B5054639
:1007E0000C4600F083F9422000F0BEF918B100F089
:1007F0009FF9012070BD0A2000F0F6FB284600F0AA
:10080000B3F918B100F094F90220F3E700F090F981
:100810000A2000F0E9FB00F069F9432000F0A4F998
:1008200018B100F085F90320E4E70A2000F0DCFBB2
:1008300000F004F9207000F047FC00F079F9002086
:10084000D8E710B58021122000F001F810BD70B576
:1008500005460C4600F04AF9422000F085F918B12F
:1008600000F066F9012070BD0A2000F0BDFB2846AB
:1008700000F07AF918B100F05BF90220F3E70A20E2
:1008800000F0B2FB204600F06FF918B100F050F90B
:100890000320E8E700F04CF90020E4E7704700008F
:1008A00029B1064A12680243044B1A6004E0034A65
:1008B00012688243014B1A607047000030380240D2
:1008C00029B1064A12680243044B1A6004E0034A45
:1008D00012688243014B1A607047000034380240AE
:1008E00029B1064A12680243044B1A6004E0034A25
:1008F00012688243014B1A6070470000443802407E
:10090000F0B5002100220024022500260223324FE8
:100910003F6807F00C0121B1042905D0082937D11F
:1009200005E02E4F076036E02D4F076033E02A4F79
:100930003F1F3F68C7F38056274F3F1F3F6807F0B0
:100940003F036EB1264FB7FBF3F7DFF88CC0ACF175
:10095000040CDCF800C0CCF3881C07FB0CF40CE0A2
:100960001E4FB7FBF3F7DFF870C0ACF1040CDCF8F6
:1009700000C0CCF3881C07FB0CF4174F3F1F3F68E7
:10098000C7F301477F1C7D00B4FBF5F7076002E069
:10099000124F076000BF00BF0F4F3F6807F0F00124
:1009A0000909104F7A5C0768D74047600A4F3F68D3
:1009B00007F4E051890A0B4F7A5C4768D74087609B
:1009C000054F3F6807F46041490B064F7A5C476862
:1009D000D740C760F0BD0000083802400024F40092
:1009E00000127A000800002002460020044B18681C
:1009F00020F0784042EA01031843014B1860704729
:100A0000083802401CB501210220FFF749FF4FF4CE
:100A10004060009001208DF8040000208DF8060051
:100A200001208DF8070002208DF805006946024874
:100A3000FFF70FFE1CBD00000004024070B500244B
:100A400000F028F8322000F0CFFA08251AE0322012
:100A500000F0CAFA4FF480600D4908806006040E69
:100A60000B480838006800F4006008B1601CC4B28C
:100A7000322000F0B9FA4FF480600549891C0880E3
:100A8000681EC5B2002DE2DC00F018F8204670BDEB
:100A9000180402401CB54FF40060009000208DF84F
:100AA000040001208DF8070002208DF8050069463A
:100AB0000148FFF7CEFD1CBD000402401CB54FF4F9
:100AC0000060009001208DF8040000208DF80600E1
:100AD00001208DF8070002208DF8050069460248C4
:100AE000FFF7B7FD1CBD00000004024010B54FF435
:100AF00000600E490880322000F076FA4FF48060E2
:100B00000A490880322000F06FFA4FF4006007496C
:100B1000891C0880322000F067FA4FF48060034996
:100B2000891C0880322000F05FFA10BD18040240D2
:100B300010B54FF400600B490880322000F054FAE1
:100B40004FF480600749891E0880322000F04CFA7B
:100B50004FF400600349891E0880322000F044FAF7
:100B600010BD00001A04024070B50446002622E0C1
:100B700004F0800020B14FF400602249088004E0B6
:100B80004FF400601F49891C08806006040E322063
:100B900000F02AFA4FF480601A490880322000F0F1
:100BA00023FA4FF480601749891C0880322000F036
:100BB0001BFA701CC6B2082EDADB0A2000F014FA09
:100BC000FFF768FF322000F00FFA4FF480600D4904
:100BD00008800A2000F008FA0A480838006800F483
:100BE000006008B1012500E000254FF48060054950
:100BF000891C0880322000F0F7F9FFF75FFF2846D4
:100C000070BD000018040240704700000CB50020C1
:100C1000019000903448006840F480303249086008
:100C200000BF3148006800F4003000900198401C7B
:100C30000190009818B90198B0F5A06FF1D12A4839
:100C4000006800F4003010B10120009001E00020A5
:100C500000900098012846D123484030006840F0B9
:100C600080502149403108602048006840F48040AD
:100C70001E4908601C48083000681B49083108609C
:100C80000846006840F4004008600846006840F4E8
:100C9000A05008601648091F0860081F006840F04F
:100CA0008070091F086000BF0F48006800F00070E6
:100CB0000028F9D040F205600E4908600A48083063
:100CC000006820F003000849083108600846006801
:100CD00040F00200086000BF03480830006800F0E0
:100CE0000C000828F8D10CBD00380240007000400C
:100CF000084B4007003C024010B500F06BF810BDF7
:100D000030B500BF15480068154AB0FBF2F1B1F1EB
:100D1000807F01D301201DE021F07F40401E4FF075
:100D2000E022506150170F22002807DA13071D0E2A
:100D30000C4B00F00F04241F1D5503E013071C0E7D
:100D4000094B1C5400BF00204FF0E02290610720A7
:100D5000106100200028D5D130BD0000180000200F
:100D600040420F0018ED00E000E400E010B5154827
:100D7000006840F47000134908601348006840F0B0
:100D800001001149086000200F49083108600E4831
:100D900000680E4908400C4908600D48091D0860AC
:100DA000081F006820F48020091F08600020064901
:100DB0000C310860FFF72AFF4FF0006001498039CD
:100DC000086010BD88ED00E000380240FFFFF6FE2D
:100DD000103000240448006820B103480068401E19
:100DE00001490860704700000400002000B587B08A
:100DF00001210846FFF754FD01211020FFF770FD87
:100E0000072209211E48FFF76CFC07220A211C4813
:100E1000FFF767FC4FF40070059002208DF8190071
:100E20008DF8180000208DF81A0001208DF81B00A5
:100E300005A91348FFF70DFC4FF4806005900220D0
:100E40008DF8180005A90E48FFF703FC4FF4E130B8
:100E500001900020ADF80C00ADF80800ADF80A00D4
:100E6000ADF810000C20ADF80E0001A9054800F007
:100E700025F80121034800F007F807B000BD000085
:100E8000000002400010014021B1828942F400526A
:100E9000828104E082894DF6FF731A408281704797
:100EA00002460020B1F5007F00D100BF13880B403F
:100EB0000BB1012000E00020704700002DE9FF4742
:100EC00005460E460024A14600BFA046B08900B1E9
:100ED00000BF2C8A24F44054F08804432C82AC894F
:100EE00041F20C608443B08831890843718908431A
:100EF0000443AC81AC8A24F44074B0890443AC82CE
:100F00006846FFF7FDFC2048854202D01F48854215
:100F100002D1DDF80C9001E0DDF80890A88900F41A
:100F2000004040B109EBC90000EB091031684900ED
:100F3000B0FBF1F707E009EBC90000EB09103168DD
:100F40008900B0FBF1F76420B7FBF0F00401200941
:100F5000642101FB1078A88900F4004040B13220E0
:100F600000EBC800B0FBF1F000F00700044308E01C
:100F7000322000EB08106421B0FBF1F000F00F000C
:100F800004432C81BDE8FF8700100140001401409C
:100F9000C1F308028280704700BFFEE702E008C884
:100FA000121F08C1002AFAD170477047002001E0E3
:100FB00001C1121F002AFBD1704700004FF47A7064
:100FC0000349086000BF024800680028FBD1704751
:100FD0000400002000B5024601E0FFF7EFFF10001B
:100FE000A2F10102F9D100BD0349086000BF024926
:100FF00009680029FBD1704704000020FFF7B6FE06
:10100000FFF798FBFFF77CFEFFF7F0FE6420FFF789
:10101000E1FF0A212748FFF7BBFFFFF7B5FBD8B177
:1010200000212448FFF7B4FF15E04FF48041224827
:10103000FFF77AFB4FF49670FFF7CCFF4FF4804137
:101040001D48FFF773FB4FF49670FFF7C3FF0021B5
:101050001848FFF79DFFE8E74FF47A70FFF7BAFFF3
:10106000FFF7B2F925E0FF211248FFF791FF134D7A
:101070001348FFF7BDFAC0F59640124908604FF4D7
:101080009640086000240BE000BF40210948FFF7AC
:1010900007FF0028F9D0295D0648FFF779FF641C97
:1010A00008480068B4EB800FEED34FF49670FFF75A
:1010B00091FFD8E700100140000402402C000020FE
:1010C000286402400000002010B54FF400600E4973
:1010D00008803220FFF788FF4FF480600A490880BB
:1010E0003220FFF781FF4FF480600749891C088098
:1010F0003220FFF779FF4FF400600349891C088014
:101100003220FFF771FF10BD180402403A0C40D0A6
:10111000121432801716180419021A7A03050C00EB
:101120003E007000710172117300A20211817A20D9
:101130007B1C7C287D3C7E557F6880768180828800
:10114000838F849685A386AF87C488D789E813E008
:10115000000010000D0042001428A505AB072475FF
:10116000256326A59F78A068A6DFA7DFA8F0A99031
:10117000AA9413E50E610F431E05210222012300EC
:10118000330B371D3871392A3C6869556B0A741165
:1011900092009300B104B382431444F04545466184
:1011A00047514879640465206605940495086C0AE3
:1011B0006D556E116F9F6A400140024013E715089C
:1011C0004F80508051005222535E5480550A564F32
:1011D000589E41083F05750576C14C0F770A3DC200
:1011E0004B01C960413834113B02A4899D4C9E3F9C
:1011F00078047901C8F0790FC8007910C87E790A9F
:10120000C880790BC801790CC80F790DC8207909FD
:10121000C8807902C8C07903C8407905C8307926EA
:1012200009023B4244120008000000202C0000008C
:101230009C0F0008701200082C00002004300100F0
:10124000AC0F0008000000000000000000000000DB
:10125000010203040102030406070809007A030AD5
:101260000000000000000000010203040607080956
:040000050800018965
:00000001FF
